:100000000C942A000C943F000C943F000C943F0089
:100010000C943F000C943F000C943F000C943F0064
:100020000C943F000C943F000C943F000C943F0054
:100030000C943F000C943F000C943F000C943F0044
:100040000C943F000C943F000C943F000C943F0034
:100050000C943F0011241FBECFE5D8E0DEBFCDBF1A
:1000600011E0A0E6B0E0E4EDF4E202C005900D92EC
:10007000A63BB107D9F70E94830E0C9468120C942A
:100080000000EF92FF920F931F937B018C0120E001
:1000900030E040E05FE40E94ED0388238CF0C8016B
:1000A000B70120E030E040E05FE40E94B9010E9427
:1000B000AB049B01AC01205030404040504806C08A
:1000C000C801B7010E94AB049B01AC01B901CA0190
:1000D0001F910F91FF90EF900895A0E0B0E0E3E74B
:1000E000F0E00C943112DC012B01FA019C9192306A
:1000F00008F439C1EB018881823008F433C19430AF
:1001000069F4843009F02FC111969C91119789816F
:10011000981709F428C1ADE9B0E025C1843009F48D
:1001200021C18230A9F4923009F01DC19A01AD01BC
:1001300088E0EA010990AE01E90109929E0181502F
:10014000C1F7E201898111969C918923818308C1BD
:10015000923009F407C112962D903C901397EB0151
:100160008A819B811496AD90BD90CD90DC901797BD
:10017000EC80FD800E811F819101281B390BB90194
:1001800037FF04C066277727621B730B6032710547
:100190000CF061C0121613066CF537014801062EEB
:1001A00004C096948794779467940A94D2F721E0D8
:1001B00030E040E050E004C0220F331F441F551FC1
:1001C0006A95D2F721503040404050402E213F21C7
:1001D00040235123211531054105510521F021E02E
:1001E00030E040E050E079018A01E628F72808294C
:1001F00019293CC0232BD1F1260E371E35014601AB
:10020000062E04C096948794779467940A94D2F744
:1002100021E030E040E050E004C0220F331F441FD3
:10022000551F6A95D2F721503040404050402A2156
:100230003B214C215D21211531054105510521F05E
:1002400021E030E040E050E059016A01A628B728DB
:10025000C828D9280BC0821593052CF01C01AA24AC
:10026000BB24650103C0EE24FF24870111969C91F5
:10027000D20111968C91981709F445C0992339F051
:10028000A80197012A193B094C095D0906C0A6017E
:1002900095012E193F09400B510B57FD08C01182E3
:1002A0003382228224833583468357831DC081E0B5
:1002B00081833382228288279927DC01821B930B5A
:1002C000A40BB50B84839583A683B7830DC0220F3F
:1002D000331F441F551F24833583468357838281F0
:1002E000938101979383828324813581468157814D
:1002F000DA01C9010197A109B1098F5F9F4FAF4F83
:10030000BF4328F30BC0918333822282EA0CFB1C8B
:100310000C1D1D1DE482F5820683178383E0808314
:10032000248135814681578157FF1AC0C901AA2708
:1003300097FDA095BA2F81709070A070B0705695FF
:10034000479537952795822B932BA42BB52B848328
:100350009583A683B7838281938101969383828359
:10036000DF0101C0D201CD01CDB7DEB7E2E10C94CF
:100370004D12A0E2B0E0EFEBF1E00C943D12698386
:100380007A838B839C832D833E834F835887E9E058
:10039000EE2EF12CEC0EFD1ECE010196B7010E944F
:1003A00023068E010F5E1F4FCE010596B8010E94F5
:1003B00023068A8991E089278A8BC701B801AE019B
:1003C000475E5F4F0E946D000E944E05A096E6E0DA
:1003D0000C945912A0E2B0E0E0EFF1E00C943D1271
:1003E00069837A838B839C832D833E834F835887D5
:1003F000F9E0EF2EF12CEC0EFD1ECE010196B701B7
:100400000E9423068E010F5E1F4FCE010596B80194
:100410000E942306C701B801AE01475E5F4F0E94EC
:100420006D000E944E05A096E6E00C945912A0E2E1
:10043000B0E0EDE1F2E00C94311269837A838B83B2
:100440009C832D833E834F835887CE010196BE0146
:10045000675F7F4F0E942306CE010596BE016F5E47
:100460007F4F0E9423069985923088F089898230D7
:10047000C8F0943019F4823051F404C0843029F467
:10048000923081F48DE990E0C6C0923049F420E0CA
:100490009A858A89981321E02A87CE010996BBC0E4
:1004A000823049F420E09A858A89981321E02A8BCA
:1004B000CE014196B0C02D843E844F8458886D880B
:1004C0007E888F88988CEE24FF248701AA24BB2481
:1004D000650140E050E060E070E0E0E0F0E0C10184
:1004E00081709070892BE9F0E60CF71C081D191D2E
:1004F0009A01AB012A0D3B1D4C1D5D1D80E090E073
:10050000A0E0B0E0E614F7040805190520F481E046
:1005100090E0A0E0B0E0BA01A901480F591F6A1F9E
:100520007B1FAA0CBB1CCC1CDD1C97FE08C081E005
:1005300090E0A0E0B0E0A82AB92ACA2ADB2A3196C6
:10054000E032F10549F0660C771C881C991C569422
:10055000479437942794C3CFFA85EA892B893C893D
:100560008B859C85280F391F2E5F3F4F17C0CA010E
:1005700081709070892B61F016950795F794E79438
:1005800080E090E0A0E0B0E8E82AF92A0A2B1B2BD3
:1005900076956795579547952F5F3F4F77FDE7CF46
:1005A0000CC0440F551F661F771F17FD4160EE0CEE
:1005B000FF1C001F111F21503040403090E05907B0
:1005C00090E0690790E4790760F32B8F3C8FDB01A3
:1005D000CA018F779070A070B07080349105A1052A
:1005E000B10561F447FD0AC0E114F10401051105EC
:1005F00029F0405C5F4F6F4F7F4F40781A8EFE1797
:1006000011F081E08A8F4D8F5E8F6F8F78A383E02A
:10061000898FCE0149960E944E05A096E2E10C9486
:100620004D12A8E1B0E0E7E1F3E00C9439126983E0
:100630007A838B839C832D833E834F835887B9E0D5
:10064000EB2EF12CEC0EFD1ECE010196B7010E949F
:1006500023068E010F5E1F4FCE010596B8010E9442
:1006600023062985223008F47EC03989323010F4FF
:10067000B8017CC08A859A8989278A87243011F03D
:10068000223031F4231709F06EC06DE970E06EC0BE
:10069000343039F41D861E861F86188A1C861B86F8
:1006A00004C0323021F484E08987B7015FC02B8514
:1006B0003C858B899C89281B390B3C872B87ED84D3
:1006C000FE840F851889AD88BE88CF88D88CEA143F
:1006D000FB040C051D0540F4EE0CFF1C001F111F50
:1006E000215030403C872B8720E030E040E050E054
:1006F00080E090E0A0E0B0E460E070E0EA14FB0489
:100700000C051D0540F0282B392B4A2B5B2BEA18D2
:10071000FB080C091D09B695A79597958795EE0CD2
:10072000FF1C001F111F6F5F7F4F6F31710531F785
:10073000DA01C9018F779070A070B0708034910594
:10074000A105B10561F427FD0AC0E114F10401051A
:10075000110529F0205C3F4F4F4F5F4F20782D87C8
:100760003E874F87588BBE01675F7F4FCB010E944A
:100770004E056896EAE00C945512A8E1B0E0E3EC6F
:10078000F3E00C943D1269837A838B839C832D83E1
:100790003E834F83588789E0E82EF12CEC0EFD1E36
:1007A000CE010196B7010E9423068E010F5E1F4FF6
:1007B000CE010596B8010E9423068985823040F05B
:1007C0008989823028F0C701B8010E949B0601C0C8
:1007D0008FEF6896E6E00C945912A8E1B0E0E3EFE1
:1007E000F3E00C943D1269837A838B839C832D8381
:1007F0003E834F83588789E0E82EF12CEC0EFD1ED6
:10080000CE010196B7010E9423068E010F5E1F4F95
:10081000CE010596B8010E9423068985823040F0FA
:100820008989823028F0C701B8010E949B0601C067
:100830008FEF6896E6E00C945912A8E1B0E0E3E28D
:10084000F4E00C943D1269837A838B839C832D831F
:100850003E834F83588789E0E82EF12CEC0EFD1E75
:10086000CE010196B7010E9423068E010F5E1F4F35
:10087000CE010596B8010E9423068985823040F09A
:100880008989823028F0C701B8010E949B0601C007
:1008900081E06896E6E00C945912A8E0B0E0E3E548
:1008A000F4E00C943A129B01AC0183E08983DA01F5
:1008B000C9018827B7FD83959927AA27BB27B82E9A
:1008C000211531054105510519F482E089833AC0AB
:1008D0008823A9F0203080E0380780E0480780E8CE
:1008E000580729F460E070E080E09FEC30C0EE240F
:1008F000FF248701E21AF30A040B150B02C07901E9
:100900008A018EE1C82ED12CDC82CB82ED82FE8260
:100910000F831887C801B7010E94FF0401971816BA
:10092000190684F4082E04C0EE0CFF1C001F111FD2
:100930000A94D2F7ED82FE820F831887C81AD90A6B
:10094000DC82CB82BA82CE0101960E944E052896A7
:10095000E9E00C945612ACE0B0E0E1EBF4E00C946A
:10096000411269837A838B839C83CE010196BE01F9
:100970006B5F7F4F0E9423068D81823061F1823050
:1009800050F1843021F48E81882351F12EC02F81C3
:10099000388537FD20C06E812F3131051CF066236C
:1009A000F9F023C08EE190E0821B930B29853A85F4
:1009B0004B855C8504C056954795379527958A9554
:1009C000D2F76623B1F050954095309521953F4F71
:1009D0004F4F5F4F0EC020E030E040E050E009C0D4
:1009E0002FEF3FEF4FEF5FE704C020E030E040E043
:1009F00050E8B901CA012C96E2E00C945D12EF9226
:100A0000FF920F931F937B018C0180E0E81680E03A
:100A1000F80681E0080780E0180788F48FEFE816F1
:100A2000F1040105110531F028F088E090E0A0E024
:100A3000B0E017C080E090E0A0E0B0E012C080E03D
:100A4000E81680E0F80680E0080781E0180728F043
:100A500088E190E0A0E0B0E004C080E190E0A0E098
:100A6000B0E020E230E040E050E0281B390B4A0BB8
:100A70005B0B04C016950795F794E7948A95D2F717
:100A8000F701EB55FF4F8081281B310941095109BE
:100A9000C9011F910F91FF90EF900895DF92EF929F
:100AA000FF920F931F93FC01E480F580068117816C
:100AB000D1808081823048F480E090E0A0E1B0E015
:100AC000E82AF92A0A2B1B2BA5C0843009F49FC001
:100AD000823021F4EE24FF24870105C0E114F104E3
:100AE0000105110519F4E0E0F0E096C06281738120
:100AF0009FEF623879070CF05BC022E83FEF261BBE
:100B0000370B2A3131052CF020E030E040E050E096
:100B10002AC0B801A701022E04C0769567955795A3
:100B200047950A94D2F781E090E0A0E0B0E004C0DD
:100B3000880F991FAA1FBB1F2A95D2F70197A109F9
:100B4000B1098E219F21A023B1230097A105B105F2
:100B500021F081E090E0A0E0B0E09A01AB01282B09
:100B6000392B4A2B5B2BDA01C9018F779070A0706B
:100B7000B07080349105A105B10539F427FF09C093
:100B8000205C3F4F4F4F5F4F04C0215C3F4F4F4FA2
:100B90005F4FE0E0F0E02030A0E03A07A0E04A0735
:100BA000A0E45A0710F0E1E0F0E079018A0127C0E3
:100BB0006038710564F5FB01E158FF4FD801C701AA
:100BC0008F779070A070B07080349105A105B10549
:100BD00039F4E7FE0DC080E490E0A0E0B0E004C08E
:100BE0008FE390E0A0E0B0E0E80EF91E0A1F1B1FA3
:100BF00017FF05C016950795F794E794319687E09F
:100C000016950795F794E7948A95D1F705C0EE24D9
:100C1000FF248701EFEFF0E06E2F67956627679559
:100C2000902F9F77D794DD24D7948E2F8695492FC8
:100C3000462B582F5D29B701CA011F910F91FF90D4
:100C4000EF90DF900895FC01DB014081518122810A
:100C5000622F6F7770E0221F2227221F9381892F36
:100C6000880F822B282F30E0991F9927991F119602
:100C70009C93119721153105A9F541155105610581
:100C8000710511F482E037C082E89FEF13969C93C0
:100C90008E9312979A01AB0167E0220F331F441F16
:100CA000551F6A95D1F783E08C930DC0220F331F37
:100CB000441F551F12968D919C911397019713967F
:100CC0009C938E931297203080E0380780E048078D
:100CD00080E4580758F314962D933D934D935C93FD
:100CE000179708952F3F310579F441155105610596
:100CF000710519F484E08C93089564FF03C081E0CA
:100D00008C9312C01C9210C02F57304013963C9306
:100D10002E93129783E08C9387E0440F551F661F34
:100D2000771F8A95D1F7706414964D935D936D93F8
:100D30007C93179708951F93DC01FB019C919230DF
:100D400008F447C08081823008F443C0943051F4E5
:100D500011961C91843099F58181682F70E0611B98
:100D600071093FC0843021F0923031F48230B9F102
:100D70008181882389F12DC011961C9111978230B1
:100D8000F1F081811817D9F412962D913C911397A7
:100D9000828193818217930794F028173907BCF05A
:100DA00014968D919D910D90BC91A02D248135813B
:100DB00046815781281739074A075B0718F4112322
:100DC00041F00AC082179307A407B50740F4112326
:100DD00019F061E070E005C06FEF7FEF02C060E0E6
:100DE00070E0CB011F910895DF93CF93CDB7DEB7AD
:100DF0002F970FB6F894DEBF0FBECDBF8F8781E06F
:100E000060E04FEF0E942F0B81E061E040E00E9424
:100E10002F0B83E06F850E94730C81E062E04FEF3F
:100E20000E942F0B80E090E0A0E0B0E48B879C87CD
:100E3000AD87BE876B857C858D859E8520E030E003
:100E40004AEF54E40E941702DC01CB018F8398879C
:100E5000A987BA876F81788589859A8520E030E0F7
:100E600040E85FE30E941D0488232CF481E090E0B9
:100E70009E838D833FC06F81788589859A8520E028
:100E80003FEF4FE757E40E94BD0318164CF56B8502
:100E90007C858D859E8520E030E040E251E40E9413
:100EA0001702DC01CB01BC01CD010E944100DC0135
:100EB000CB019E838D830FC088EC90E09C838B8355
:100EC0008B819C810197F1F79C838B838D819E811F
:100ED00001979E838D838D819E81009769F714C051
:100EE0006F81788589859A850E944100DC01CB015C
:100EF0009E838D838D819E819A83898389819A8146
:100F00000197F1F79A83898381E062E040E00E94D3
:100F10002F0B2F960FB6F894DEBF0FBECDBFCF912B
:100F2000DF910895DF93CF93CDB7DEB72F970FB63C
:100F3000F894DEBF0FBECDBF8F8781E060E040E058
:100F40000E942F0B81E061E040E00E942F0B83E0C4
:100F50006F850E94730C81E062E04FEF0E942F0BBF
:100F600080E090E0A0E0B0E48B879C87AD87BE87EF
:100F70006B857C858D859E8520E030E04AEF54E4CA
:100F80000E941702DC01CB018F839887A987BA875B
:100F90006F81788589859A8520E030E040E85FE3BD
:100FA0000E941D0488232CF481E090E09E838D83B1
:100FB0003FC06F81788589859A8520E03FEF4FE7B4
:100FC00057E40E94BD0318164CF56B857C858D8512
:100FD0009E8520E030E040E251E40E941702DC01EF
:100FE000CB01BC01CD010E944100DC01CB019E83FD
:100FF0008D830FC088EC90E09C838B838B819C81D8
:101000000197F1F79C838B838D819E8101979E834D
:101010008D838D819E81009769F714C06F817885DB
:1010200089859A850E944100DC01CB019E838D83D6
:101030008D819E819A83898389819A810197F1F7B5
:101040009A83898381E062E040E00E942F0B2F9613
:101050000FB6F894DEBF0FBECDBFCF91DF910895DC
:10106000DF93CF93CDB7DEB72E970FB6F894DEBFE0
:101070000FBECDBF80E090E0ACE1B2E48B879C87EF
:10108000AD87BE876B857C858D859E8520E030E0B1
:101090004AEF54E40E941702DC01CB018F8398874A
:1010A000A987BA876F81788589859A8520E030E0A5
:1010B00040E85FE30E941D0488232CF481E090E067
:1010C0009E838D833FC06F81788589859A8520E0D6
:1010D0003FEF4FE757E40E94BD0318164CF56B85B0
:1010E0007C858D859E8520E030E040E251E40E94C1
:1010F0001702DC01CB01BC01CD010E944100DC01E3
:10110000CB019E838D830FC088EC90E09C838B8302
:101110008B819C810197F1F79C838B838D819E81CC
:1011200001979E838D838D819E81009769F714C0FE
:101130006F81788589859A850E944100DC01CB0109
:101140009E838D838D819E819A83898389819A81F3
:101150000197F1F79A83898388E30E9492078FE0D1
:101160000E94920781E00E9492072E960FB6F89493
:10117000DEBF0FBECDBFCF91DF910895DF93CF9338
:1011800000D00F92CDB7DEB79B838A8319820EC041
:101190008981282F30E08A819B81FC01E20FF31FB7
:1011A00080810E94F40689818F5F89838981282F3D
:1011B00030E08A819B81FC01E20FF31F808188234C
:1011C00039F70F900F900F90CF91DF910895DF9333
:1011D000CF9300D00F92CDB7DEB78A836B838B811C
:1011E000882319F48A81898303C08A81805C89837A
:1011F00089818068898389810E9492070F900F906E
:101200000F90CF91DF910895DF93CF93CDB7DEB7E5
:1012100081E00E949207CF91DF910895DF93CF93F1
:10122000CDB7DEB729970FB6F894DEBF0FBECDBF9E
:101230008D838D81882349F481E090E0A0E0B0E0C7
:101240008E839F83A887B9871CC08D8181500E949F
:101250000E09DC01CB012AE030E040E050E0BC01A7
:10126000CD010E94FE11DC01CB0189839A83AB83FF
:10127000BC8389819A81AB81BC818E839F83A8873F
:10128000B9878E819F81A885B985BC01CD0129963A
:101290000FB6F894DEBF0FBECDBFCF91DF9108959A
:1012A000DF93CF930F92CDB7DEB7898389810E94F8
:1012B0000E09DC01CB01BC01CD010E944D049B0154
:1012C000AC0160E070E080E89FE30E941103DC0164
:1012D000CB01BC01CD010F90CF91DF910895DF9339
:1012E000CF93CDB7DEB760970FB6F894DEBF0FBED1
:1012F000CDBF988B8F8719821EC08981E82FF0E0BF
:101300008F8598892AE030E0B9010E941D12282FAC
:10131000205DCE010596E80FF91F208389818F5F3C
:1013200089838F8598892AE030E0B9010E941D12D7
:10133000CB01988B8F878F8598898A309105E8F645
:101340008981282F30E08F85482F405DCE0105969A
:10135000FC01E20FF31F408389818F5F89838981BC
:10136000282F30E0CE010596FC01E20FF31F10821A
:101370001B82898181508A832CC08B81282F30E089
:10138000CE010596FC01E20FF31F80818C838B81D7
:10139000482F50E08A81282F30E0CE010596FC01CD
:1013A000E20FF31F2081CE010596FC01E40FF51F2B
:1013B00020838A81282F30E0CE010596FC01E20FC0
:1013C000F31F8C8180838B818F5F8B838A81815017
:1013D0008A839B818A81981780F2CE0105960E94AC
:1013E000BE0860960FB6F894DEBF0FBECDBFCF919A
:1013F000DF910895DF93CF93CDB7DEB781E063E04F
:101400004FEF0E942F0B81E064E040E00E942F0B21
:10141000CF91DF910895DF93CF93CDB7DEB781E011
:1014200063E040E00E942F0B81E064E04FEF0E94F8
:101430002F0BCF91DF910895DF93CF93CDB7DEB718
:1014400081E063E040E00E942F0B81E064E040E037
:101450000E942F0BCF91DF910895DF93CF93CDB7EB
:10146000DEB727970FB6F894DEBF0FBECDBF8983D6
:101470006A834B838B81882309F075C08981282F6B
:1014800030E03F832E838E819F818230910561F110
:101490002E813F812330310534F48E819F8181304C
:1014A000910569F0D3C02E813F812330310589F148
:1014B0008E819F818430910509F440C0C7C0AAE3A2
:1014C000B0E0EAE3F0E08081482F8A81282F30E005
:1014D00081E090E0022E02C0880F991F0A94E2F783
:1014E000809584238C93B2C0A7E3B0E0E7E3F0E0FB
:1014F0008081482F8A81282F30E081E090E0022E01
:1015000002C0880F991F0A94E2F7809584238C9378
:101510009DC0A4E3B0E0E4E3F0E08081482F8A813D
:10152000282F30E081E090E0022E02C0880F991F42
:101530000A94E2F7809584238C9388C0A1E3B0E0FD
:10154000E1E3F0E08081482F8A81282F30E081E0BC
:1015500090E0022E02C0880F991F0A94E2F780954E
:1015600084238C9373C08B81813009F06FC0898193
:10157000282F30E03D832C838C819D818230910522
:1015800051F12C813D812330310534F48C819D81D2
:101590008130910561F05AC02C813D8123303105A5
:1015A00071F18C819D8184309105E9F14FC0AAE3EE
:1015B000B0E0EAE3F0E08081482F8A81282F30E014
:1015C00081E090E0022E02C0880F991F0A94E2F792
:1015D000842B8C933BC0A7E3B0E0E7E3F0E080818D
:1015E000482F8A81282F30E081E090E0022E02C04F
:1015F000880F991F0A94E2F7842B8C9327C0A4E3E9
:10160000B0E0E4E3F0E08081482F8A81282F30E0C9
:1016100081E090E0022E02C0880F991F0A94E2F741
:10162000842B8C9313C0A1E3B0E0E1E3F0E0808170
:10163000482F8A81282F30E081E090E0022E02C0FE
:10164000880F991F0A94E2F7842B8C9327960FB684
:10165000F894DEBF0FBECDBFCF91DF910895DF9329
:10166000CF93CDB7DEB727970FB6F894DEBF0FBE86
:10167000CDBF89836A834B838B81882309F075C032
:101680008981282F30E03F832E838E819F81823095
:10169000910561F12E813F812330310534F48E8133
:1016A0009F818130910569F0D3C02E813F81233025
:1016B000310589F18E819F818430910509F440C004
:1016C000C7C0ABE3B0E0EBE3F0E08081482F8A8154
:1016D000282F30E081E090E0022E02C0880F991F91
:1016E0000A94E2F7809584238C93B2C0A8E3B0E01B
:1016F000E8E3F0E08081482F8A81282F30E081E004
:1017000090E0022E02C0880F991F0A94E2F780959C
:1017100084238C939DC0A5E3B0E0E5E3F0E08081F5
:10172000482F8A81282F30E081E090E0022E02C00D
:10173000880F991F0A94E2F7809584238C9388C0C0
:10174000A2E3B0E0E2E3F0E08081482F8A81282F15
:1017500030E081E090E0022E02C0880F991F0A94C9
:10176000E2F7809584238C9373C08B818F3F09F0BF
:101770006FC08981282F30E03D832C838C819D812F
:101780008230910551F12C813D812330310534F4B3
:101790008C819D818130910561F05AC02C813D8101
:1017A0002330310571F18C819D8184309105E9F1FF
:1017B0004FC0ABE3B0E0EBE3F0E08081482F8A81DB
:1017C000282F30E081E090E0022E02C0880F991FA0
:1017D0000A94E2F7842B8C933BC0A8E3B0E0E8E3E3
:1017E000F0E08081482F8A81282F30E081E090E06E
:1017F000022E02C0880F991F0A94E2F7842B8C9363
:1018000027C0A5E3B0E0E5E3F0E08081482F8A81BE
:10181000282F30E081E090E0022E02C0880F991F4F
:101820000A94E2F7842B8C9313C0A2E3B0E0E2E3C6
:10183000F0E08081482F8A81282F30E081E090E01D
:10184000022E02C0880F991F0A94E2F7842B8C9312
:1018500027960FB6F894DEBF0FBECDBFCF91DF91B4
:101860000895DF93CF9300D000D0CDB7DEB7898342
:101870006A838981282F30E03C832B838B819C8174
:1018800082309105D9F02B813C812330310534F42D
:101890008B819C818130910561F01EC02B813C8140
:1018A0002330310581F08B819C818430910581F05A
:1018B00013C0EAE3F0E08A8180830EC0E7E3F0E042
:1018C0008A81808309C0E4E3F0E08A81808304C0D8
:1018D000E1E3F0E08A8180830F900F900F900F90EA
:1018E000CF91DF910895DF93CF9300D000D0CDB793
:1018F000DEB789836A838981282F30E03C832B837C
:101900008B819C8182309105D9F02B813C812330E1
:10191000310534F48B819C818130910561F01EC0CA
:101920002B813C812330310581F08B819C81843077
:10193000910581F013C0EBE3F0E08A8180830EC053
:10194000E8E3F0E08A81808309C0E5E3F0E08A8182
:10195000808304C0E2E3F0E08A8180830F900F90DF
:101960000F900F90CF91DF910895DF93CF9300D028
:1019700000D00F92CDB7DEB78A836B838A81282F80
:1019800030E03D832C834C815D814230510541F133
:101990008C819D818330910534F42C813D812130EF
:1019A000310561F052C04C815D814330510551F1E8
:1019B0008C819D8184309105B9F147C0E9E3F0E065
:1019C0008081282F30E08B81882F90E0A90102C010
:1019D000559547958A95E2F7CA018170898335C08C
:1019E000E6E3F0E08081282F30E08B81882F90E0C3
:1019F000A90102C0559547958A95E2F7CA01817001
:101A0000898323C0E3E3F0E08081282F30E08B81DD
:101A1000882F90E0A90102C0559547958A95E2F775
:101A2000CA018170898311C0E0E3F0E08081282F32
:101A300030E08B81882F90E0A90102C05595479531
:101A40008A95E2F7CA018170898389810F900F908E
:101A50000F900F900F90CF91DF910895DF93CF9368
:101A6000CDB7DEB7A6970FB6F894DEBF0FBECDBFD9
:101A7000CE0142969BA38AA3E5EAF1E0FDA3ECA385
:101A8000F0E1FEA3ECA1FDA100808CA19DA1019637
:101A90009DA38CA3EAA1FBA100828AA19BA1019630
:101AA0009BA38AA39EA191509EA3EEA1EE2351F782
:101AB00087E1898B188AAFC082E0688940E00E9484
:101AC0002F0B1F869CC08F85982F9C5F82E0692F0B
:101AD0000E94B50C882309F08FC08F85282F30E035
:101AE0008889482F50E0220F331F220F331FCE0169
:101AF0000196820F931F840F951FFC0171968081C0
:101B0000898B80E090E0A0E0B0E48B879C87AD8774
:101B1000BE876B857C858D859E8520E030E04AEF11
:101B200054E40E941702DC01CB018F839887A987B8
:101B3000BA876F81788589859A8520E030E040E812
:101B40005FE30E941D0488232CF481E090E09E83D3
:101B50008D833FC06F81788589859A8520E03FEF2E
:101B60004FE757E40E94BD0318164CF56B857C8542
:101B70008D859E8520E030E040E251E40E9417020E
:101B8000DC01CB01BC01CD010E944100DC01CB0195
:101B90009E838D830FC088EC90E09C838B838B8128
:101BA0009C810197F1F79C838B838D819E810197A6
:101BB0009E838D838D819E81009769F714C06F810C
:101BC000788589859A850E944100DC01CB019E833E
:101BD0008D838D819E819A83898389819A810197E2
:101BE000F1F79A8389838F85982F9C5F82E0692F14
:101BF0000E94B50C8823B9F38F858F5F8F878F85FF
:101C0000843008F460CF82E068894FEF0E942F0B88
:101C100088898F5F888B8889843008F44DCF8989C3
:101C2000A6960FB6F894DEBF0FBECDBFCF91DF9161
:101C30000895DF93CF93CDB7DEB7AFE4B0E0EFE424
:101C4000F0E0808180688C93AFE4B0E0EFE4F0E0F6
:101C500080818F7B8C93AFE4B0E0EFE4F0E0808193
:101C600082608C93AFE4B0E0EFE4F0E080818E7F9F
:101C70008C93AEE4B0E0EEE4F0E0808180618C9380
:101C8000AEE4B0E0EEE4F0E0808188608C93AEE4F6
:101C9000B0E0EEE4F0E080818B7F8C93AEE4B0E0C6
:101CA000EEE4F0E0808182608C93AEE4B0E0EEE49C
:101CB000F0E080818E7F8C93CF91DF910895DF9348
:101CC000CF9300D0CDB7DEB79A838983E6E4F0E006
:101CD00089819A81918380830F900F90CF91DF91BA
:101CE0000895DF93CF9300D0CDB7DEB79A83898371
:101CF000EAE4F0E089819A81918380830F900F90CC
:101D0000CF91DF910895DF93CF93CDB7DEB7EC97F6
:101D10000FB6F894DEBF0FBECDBF82E06FE00E9429
:101D2000310C82E06FEF0E94730C83E06FEF0E9432
:101D3000310C81E06FE70E94310C84E06FE20E9479
:101D4000310C84E064E04FEF0E942F0B8FEF8CAFDB
:101D50001BAE81E08AAF0E94190E0E9430080E94DB
:101D6000040980E00E94471119AE56C20E9404097E
:101D700080E690E00E94BE0880E090E0AAE7B4E42C
:101D80008DAB9EABAFABB8AF6DA97EA98FA998AD57
:101D900020E030E04AEF54E40E941702DC01CB015E
:101DA00089AB9AABABABBCAB69A97AA98BA99CA94F
:101DB00020E030E040E85FE30E941D0488232CF41B
:101DC00081E090E098AB8FA73FC069A97AA98BA961
:101DD0009CA920E03FEF4FE757E40E94BD0318168F
:101DE0004CF56DA97EA98FA998AD20E030E040E2C6
:101DF00051E40E941702DC01CB01BC01CD010E941D
:101E00004100DC01CB0198AB8FA70FC088EC90E0BC
:101E10009EA78DA78DA59EA50197F1F79EA78DA7DB
:101E20008FA598A9019798AB8FA78FA598A9009720
:101E300069F714C069A97AA98BA99CA90E944100DD
:101E4000DC01CB0198AB8FA78FA598A99CA78BA786
:101E50008BA59CA50197F1F79CA78BA781E08AAF82
:101E60000E941C0A84E060E04FEF0E942F0B84E088
:101E700061E04FEF0E942F0B84E062E040E00E949F
:101E80002F0B84E063E040E00E942F0B0E940409C6
:101E900087E690E00E94BE0803C00E942E0D8CAF22
:101EA0008CAD813019F08CAD8930B9F78CAD8930AB
:101EB00009F07AC081E065E04FEF0E942F0B80E0CF
:101EC00090E0AAE7B4E48FA398A7A9A7BAA76FA147
:101ED00078A589A59AA520E030E04AEF54E40E9455
:101EE0001702DC01CB018BA39CA3ADA3BEA36BA106
:101EF0007CA18DA19EA120E030E040E85FE30E943C
:101F00001D0488232CF481E090E09AA389A33FC0AC
:101F10006BA17CA18DA19EA120E03FEF4FE757E48C
:101F20000E94BD0318164CF56FA178A589A59AA546
:101F300020E030E040E251E40E941702DC01CB01D6
:101F4000BC01CD010E944100DC01CB019AA389A311
:101F50000FC088EC90E098A38F8F8F8D98A1019788
:101F6000F1F798A38F8F89A19AA101979AA389A3CA
:101F700089A19AA1009769F714C06BA17CA18DA1DA
:101F80009EA10E944100DC01CB019AA389A389A1F3
:101F90009AA19E8F8D8F8D8D9E8D0197F1F79E8FCB
:101FA0008D8F8FEF8CAF38C10E94040985E790E0D8
:101FB0000E94BE0803C00E942E0D8CAF8CAD8230F3
:101FC00019F08CAD8930B9F78CAD893009F07AC041
:101FD00081E065E04FEF0E942F0B80E090E4ACE1E0
:101FE000B6E4898F9A8FAB8FBC8F698D7A8D8B8D7C
:101FF0009C8D20E030E04AEF54E40E941702DC019F
:10200000CB018D8B9E8BAF8BB88F6D897E898F892D
:10201000988D20E030E040E85FE30E941D048823B3
:102020002CF481E090E09C8B8B8B3FC06D897E8986
:102030008F89988D20E03FEF4FE757E40E94BD0362
:1020400018164CF5698D7A8D8B8D9C8D20E030E0D3
:1020500040E251E40E941702DC01CB01BC01CD013A
:102060000E944100DC01CB019C8B8B8B0FC088EC64
:1020700090E09A8B898B89899A890197F1F79A8BDD
:10208000898B8B899C8901979C8B8B8B8B899C89F5
:10209000009769F714C06D897E898F89988D0E9499
:1020A0004100DC01CB019C8B8B8B8B899C89988BAD
:1020B0008F878F8598890197F1F7988B8F878FEF9E
:1020C0008CAFAAC00E94040982E890E00E94BE087A
:1020D00003C00E942E0D8CAF8CAD813019F08CADF9
:1020E0008930B9F78CAD893009F07AC081E065E0BC
:1020F0004FEF0E942F0B80E090E4ACE1B6E48B87B9
:102100009C87AD87BE876B857C858D859E8520E00D
:1021100030E04AEF54E40E941702DC01CB018F83C8
:102120009887A987BA876F81788589859A8520E005
:1021300030E040E85FE30E941D0488232CF481E036
:1021400090E09E838D833FC06F81788589859A85D5
:1021500020E03FEF4FE757E40E94BD0318164CF50F
:102160006B857C858D859E8520E030E040E251E4E2
:102170000E941702DC01CB01BC01CD010E9441008D
:10218000DC01CB019E838D830FC088EC90E09C83A3
:102190008B838B819C810197F1F79C838B838D814D
:1021A0009E8101979E838D838D819E81009769F723
:1021B00014C06F81788589859A850E944100DC0171
:1021C000CB019E838D838D819E819A8389838981B2
:1021D0009A810197F1F79A8389838FEF8CAF1CC0A6
:1021E00081E08BAF0E94040980E990E00E94BE0864
:1021F00084E060E040E00E942F0B84E061E040E07A
:102200000E942F0B84E062E04FEF0E942F0B84E0CE
:1022100063E04FEF0E942F0B8BAD882309F4A6CD0E
:102220002FC01BAE8AE50E94471184E067E00E9440
:10223000B50C882319F00E94FA0902C00E941C0AFA
:1022400084E066E00E94B50C882359F484E062E0E3
:102250004FEF0E942F0B84E063E04FEF0E942F0BA3
:102260000AC084E062E040E00E942F0B84E063E05B
:1022700040E00E942F0B84E064E00E94B50C8AAF1E
:102280008AAD882371F680E00E944711C5CFDF93A5
:10229000CF93CDB7DEB761970FB6F894DEBF0FBE10
:1022A000CDBF898B8989882F90E0AA2797FDA095BB
:1022B000BA2FBC01CD010E944D04DC01CB01BC0151
:1022C000CD0120E030E048E251E40E941702DC0139
:1022D000CB01BC01CD0120E030E046E154E40E9496
:1022E000EA01DC01CB01BC01CD010E944100DC010F
:1022F000CB01988B8F8780E29EE40E945F0E8F85D2
:1023000098890E94710E80E090E0AAEFB3E48B8779
:102310009C87AD87BE876B857C858D859E8520E0FB
:1023200030E04AEF54E40E941702DC01CB018F83B6
:102330009887A987BA876F81788589859A8520E0F3
:1023400030E040E85FE30E941D0488232CF481E024
:1023500090E09E838D833FC06F81788589859A85C3
:1023600020E03FEF4FE757E40E94BD0318164CF5FD
:102370006B857C858D859E8520E030E040E251E4D0
:102380000E941702DC01CB01BC01CD010E9441007B
:10239000DC01CB019E838D830FC088EC90E09C8391
:1023A0008B838B819C810197F1F79C838B838D813B
:1023B0009E8101979E838D838D819E81009769F711
:1023C00014C06F81788589859A850E944100DC015F
:1023D000CB019E838D838D819E819A8389838981A0
:1023E0009A810197F1F79A83898361960FB6F894E1
:1023F000DEBF0FBECDBFCF91DF910895629FD001A8
:10240000739FF001829FE00DF11D649FE00DF11DAF
:10241000929FF00D839FF00D749FF00D659FF00D5E
:102420009927729FB00DE11DF91F639FB00DE11D4B
:10243000F91FBD01CF0111240895AA1BBB1B51E157
:1024400007C0AA1FBB1FA617B70710F0A61BB70B24
:10245000881F991F5A95A9F780959095BC01CD01C9
:1024600008952F923F924F925F926F927F928F9238
:102470009F92AF92BF92CF92DF92EF92FF920F9313
:102480001F93CF93DF93CDB7DEB7CA1BDB0B0FB61D
:10249000F894DEBF0FBECDBF09942A8839884888DA
:1024A0005F846E847D848C849B84AA84B984C88470
:1024B000DF80EE80FD800C811B81AA81B981CE0F67
:1024C000D11D0FB6F894DEBF0FBECDBFED0108954C
:0424D000F894FFCFAE
:1024D400434C4F53454400317374206B6579206934
:1024E400733A2E2E00326E64206B652069733A2E87
:1024F4002E00337264206B65792069733A2E2E00A6
:1025040057656C636F6D652053697221000000008C
:10251400000000000000010202030303030404049A
:10252400040404040405050505050505050505055C
:10253400050505050506060606060606060606063C
:102544000606060606060606060606060606060627
:10255400060606060607070707070707070707070C
:1025640007070707070707070707070707070707F7
:1025740007070707070707070707070707070707E7
:1025840007070707070707070707070707070707D7
:1025940007070707070808080808080808080808BC
:1025A40008080808080808080808080808080808A7
:1025B4000808080808080808080808080808080897
:1025C4000808080808080808080808080808080887
:1025D4000808080808080808080808080808080877
:1025E4000808080808080808080808080808080867
:1025F4000808080808080808080808080808080857
:102604000808080808080808080808080808080846
:1026140008080808080102030405060708090A0B4C
:062624000C0D0E0F10006A
:00000001FF
